:4000000000800020110000002D0200002D02000008B5044B1A6803F53F5302331A6000F01FF900BFFA46004010B5054C237833B9044B13B10448AFF300800123237010BD01
:400040008881FF1F0000000044220000084B10B51BB108480849AFF300800848036803B910BD074B002BFBD0BDE81040184700BF00000000442200008C81FF1F0881FF1F75
:400080000000000008B501F0C5FB00286FD101F0C1FB0028FBD047E0203BDBB25F2B27D8334A13705A1ED2B2052A16D9A3F10802D2B2032A11D91A2B0FD01C2B0DD0A3F103
:4000C0001E02D2B21C2A08D93E2B06D03F2B04D0A3F15B02D2B2032A03D80221244A117102E00021224A1171224AD25C204B9A7101202149082200F04BFB012000F0A8FB88
:400100000028FAD01A4900230B718B7101200431082200F03DFB012000F09AFB0028FAD0134A137B01331373114A137B13441B7C002BB1D111462823937101200431082240
:4001400000F026FB012000F083FB0028FAD0084900238B7101200431082200F019FB012000F076FB0028FAD00022014B1A7308BDA481FF1F48220000A881FF1F08B50B4BBE
:400180001B780B4A137613F0020F0BD011460023937101200431082200F0FAFA012001F041FB08BD002001F03DFB08BDD881FF1FA481FF1F08B562B60020022100F09EFA82
:4001C000022000F02FFB00F0DDFA0028FBD001201249082200F0DCFA01F090FB01F0AEFB0F4B1A680F48C26110300F4901F020FC012000F02DFB0028F2D001F00BFB10B9A9
:40020000012001F00FFB01F005FB10B1002001F009FBFFF737FFFFF7B1FFE1E7A881FF1F54650040A481FF1FA8220000FEE700BF08B5094B1A681044084BC31A802B02DCB0
:40024000054B186005E001F0B3FB0C2303604FF0FF32104608BD00BF0C81FF1F9882FF1F08B5104E104D16E029686B68AC68002204E051F8040B43F8040B0432A242F8D102
:40028000E868002203E0002143F8041B04328242F9D11035013E002EE6D101F08FFBFFF789FFFEE7010000008C24000008B5124A124B1A60124A136843F4007313600023AB
:4002C0000AE0032B03D80F4A52F8231000E00E490E4A42F8231001332F2BF2D90C4B1A780C4B1A70094A0C4B1A6000F0B3F800220A4B1A6008BD00BF0004FA050CED00E006
:4003000014ED00E0000000002D0200000080FF1FBC7600400481FF1F08ED00E00081FF1FFEE700BFF0B40022174611E050F82760F3B226F0FF0608E001EB420511F81240C9
:400340006D78A5550132013BDBB2002BF4D10137112FEBD9F0BC7047064B1B78DBB203F00701054A11701B09013213704422034B1A707047CF0100496E58004076580040DB
:4003800008B50A46002101F04AFB08BD38B50422264B1A80182202331A70062203F27E231A704FF48572DE3B1A8002224FF040231A7041F2512203F508731A800024192563
:4003C0000CE01B4B1B7803F0010343EA440404F003044FF4F07001F03BFA013D0DB1032CEFD115B90320FFF79BFF124A4FF4807313805221104B1970104B1B78DBB210492C
:400400000B70072313700023A1F29B610B704820023108701370053213700222094B1A70094A137843F00103137038BD804000402542004004400040004200400F01004982
:40044000A146004001400040A243004008B501F0DBFA08BD38B572B6294A137843F00403137000240CE0274963001A1952000A4423445B00C8589188FFF782FF0134E4B2A4
:40048000062CF0D94FF090401F49FFF74BFF1F4A137843F0020313701032137843F0020313701B4C237843F040032370A2F58632513A137843F01003137016481649082233
:4004C000FFF7C4FF154816490A22FFF7BFFF154815490A22FFF7BAFF144A137843F008031370134D61232B70FFF750FF81232B70FFF732FF0F4821460E22FFF7A7FF38BDBE
:40050000E8460040AC2200004800004803500140A0430040C251004038020048F051004040020048205100404C0200482243004000480040B0430040F8B501F091F905463E
:40054000344A137843F0010313701032137843F0010313700127304B1F700226943B1E7002F5E2521B32137803F07F031370002001F080F9294C237803F0F9032370284AF1
:40058000137803F0DF03137023783B432370384601F070F9282001F06DF9224B1A7802F07F021A701A7802F0BF021A70237833432370304601F05EF9237843F004032370A0
:4005C0000024194B1C7001331C70284601F04CF91720072101F06CF91720144901F054F91820072101F064F91820114901F04CF92046072101F05CF920460E4901F044F9C7
:400600000C20072101F054F90C200B4901F03CF9F8BD00BFA54300409D6000409443004012600040F851004084600040110D0000650B0000D90C00009D0F000010B500232C
:4006400004E00124204AD4542344DBB2002BF8D01E4B187000231E4A13701E4A13701E4A13701E4A13701E4A13701E4A13701E4A13701E4B4FF400021A604FF080721A60A4
:4006800001221A6011B1914206D00BE0184A137803F0FE0313700AE0154A137843F00103137004E0124A137843F0010313700322104B1A708022203B1A70012001F0C8F86D
:4006C00004220D4B1A7010BD9082FF1FFC81FF1F1382FF1F1282FF1F0C82FF1F1182FF1FFD81FF1F8582FF1FF081FF1F00E100E009600040286000401260004038B505462C
:400700000C46064B1B7823B9FFF716FF0122034B1A7028462146FFF791FF38BDC481FF1F002304E001210E4AD1540B44DBB2002BF8D000230B4A13700B4A13700B4A1370CE
:400740000B4A13700B4A13700B4A13700B4A137003220B4B1A708022203B1A70704700BF9082FF1F1382FF1F1282FF1F0C82FF1F1182FF1FFD81FF1F8582FF1FF081FF1FD5
:4007800028600040014B1878704700BF0C82FF1F431EDBB2072B3BD8F0B4074600EB40039B001C4C2344DB889BB2C3F500739A4207D900EB40039B002344DA88C2F5007265
:4007C00092B200EB40039B00124C2344DB7843EA1223114D04012E192B55D3B2737039B909E0CE5C3D010D4C665501339BB200E000239342F5D3430003449B00054A13449D
:4008000000225A705A79D2B20001054B1A54F0BC704700BF1482FF1FFC5F004078600040FE5F0040431EDBB2072B0BD8430003449B00054A134400225A705A79D2B200017E
:40084000024B1A54704700BF1482FF1FFE5F0040431EDBB2072B06D80001044B185C00F01000C0B270470020704700BFFE5F00401C4B19781C4A13880B449BB2138000238D
:400880000EE01A4A51680978C9B21948C1545168013151600133DBB21188013989B21180124A128892B20AB1072BEAD90D4A1278D2B2082A00D05BB10E490A7882F0800295
:4008C0000A700F210C4A117002210C4A117004E0022209490A7009490A70094A1370014A13707047F081FF1FF281FF1F0082FF1F006000408082FF1FFF81FF1F1382FF1FB1
:40090000FE81FF1F0222074B1A708022064B1A700F22064B1A700023054A1370054A1370012070471382FF1F8082FF1FFF81FF1FF081FF1FFE81FF1F08B5FFF799FF08BD45
:4009400010B4184B197801F00F010239C9B2164A13880B449BB21380002010E0134B5C68134A125CD2B222705A6801325A600130C0B20139C9B21A88013A92B21A800B4BB3
:400980001B889BB20BB10029E8D10A4B19700A4A137883F0800313700B22084B1A705DF8044B704729600040F281FF1F0082FF1F00600040FE81FF1F8082FF1FFF81FF1F19
:4009C0000623064A1370064A13708022054B1A700022054B1A700120704700BF1382FF1FFF81FF1F8082FF1FFE81FF1F064B9B6843B1054B9A6810709A6804490988518040
:400A000000229A60704700BF0082FF1FF281FF1F08B5134B1A78D2B21A701B78DBB213F0800F02D00F4A137008BD0220FFF7DEFF0D4B1B7803F06003202B05D0402B06D07C
:400A400043B900F049FD06E000F086FF03E000F0D5FE00E0002010B90322024B1A7008BD28600040FF81FF1F0060004008B5084B1978084A13880B449BB213800022064B83
:400A80001A700120FFF7B2FF0322044B1A7008BDF081FF1FF281FF1F1382FF1FFF81FF1F08B50B4B1B78DBB2042B06D0062B07D0022B0BD1FFF7DAFF08BDFFF741FF08BDD8
:400AC0000320FFF793FF0322024B1A7008BD00BF1382FF1FFF81FF1F08B50022044B1A700120FFF783FF0322024B1A7008BD00BF1382FF1FFF81FF1F08B50B4B1B7813F0AF
:400B0000FF0F07D0084A137843F0800307490B70002313700022064B1A700120FFF766FF0322044B1A7008BDFD81FF1F086000401382FF1FFF81FF1F08B5094B1B78DBB2CA
:400B4000042B06D0062B07D0022B07D1FFF7F4FE08BDFFF7C1FF08BDFFF7CEFF08BD00BF1382FF1F08B5284B1B78DBB213F0100F48D013F0800F0CD003F00F03012B16D131
:400B8000FFF746FF214B1B7813F0800F11D1012312E013F0400F03D0FFF7CEFF01230BE013F0200F07D0FFF77BFF012304E0002302E0002300E0002323B3134B1B7813F004
:400BC000800F1FD1124B1B78124A12781343124A13701278D2B29A4214D10C4B1B78DBB2094A127812F0800F07D1084B1B78DBB2054A1370137803F00F03044A1278D2B2AE
:400C00009342EAD108BD00BF28600040FF81FF1F8082FF1FFE81FF1F296000400022064B1A80064B9B682BB1044A916800230B7092685380704700BFF281FF1F0082FF1F1E
:400C400008B50F4B1B889BB213B9FFF75BFE15E002220C4B1A7000220B4B1A70FFF7DEFF0A4AD179937943EA0123054A128892B29A4201D9024A1380FFF7FAFD012008BDF3
:400C80000082FF1F1382FF1F8082FF1F0060004008B504220B4B1A7080220B4B1A70FFF7BDFF0A4AD179937943EA0123084A128892B29A4201D9064A13800B22054B1A705F
:400CC000012008BD1382FF1F8082FF1F006000400082FF1FFF81FF1F0A4A137803F0FE031370094B9B7C094B1B7B03F00303012B04D0064AD37B83F08003D3730122034B6E
:400D00005A7370470B600040FC5F00401482FF1F08B5FFF705FD08BD08B50B4B18780138C0B200F091F9094B1B79DBB200EBC30042690749CB5C02EBC3035B68596A0B78F2
:400D4000044A1380516008BD0C82FF1F00600040F481FF1F0082FF1F08B50D4B18780138C0B200F071F90B4B1B79DBB200EBC30042690949CB5C02EBC3035B68DB6959781F
:400D800013F8022B42EA012204490A804B6008BD0C82FF1F00600040F481FF1F0082FF1F10B50022194B1A80194B18780138C0B200F04AF9174AD378DBB21279D2B200EBFC
:400DC000C200416902BB1448825C01EBC20149685A1ED2B2022A17D803F10053013B01EBC3000C4A9278D2B211F8333093420BD3406802EB4202920081184C68034B5C6022
:400E0000825A1A808A689A6010BD00BF0082FF1F0C82FF1F00600040F481FF1F08B55A4B1A79D2B21B7813F0800F4DD0564B5B78013B052B00F28C80DFE803F0212B3B8AE1
:400E40008A03514BDB78DBB2212B09D1FFF764FF4E4B1B889BB2002B7CD0FFF7F1FE08BD494BDB78DBB2222B76D1FFF775FF474B1B889BB2002B71D0FFF7E2FE08BDFFF74F
:400E80008FFF424B1B889BB2002B69D0FFF7D8FE08BD002A66D13C4B9B7813F0FF0F63D13A4901230B803A4B1A444A60FFF7C8FE08BD002A5AD1354901230B80354B1A4452
:400EC0004A60FFF7BDFE08BD2F4B5B78DBB20A2B0DD00B2B2ED0092B4AD1FFF761FF2B4B1B889BB2002B45D0FFF7D2FE08BD002A42D1254B9B7813F0FF0F3FD1224BDB783B
:400F0000DBB223498B548B5C2349895CDBB28B4203D20021204B995409E01F4B9B5CDBB2012B04D91A4B9B5CDBB21B498B54FFF747FD08BD22BB144B9B78DBB2012B21D8ED
:400F4000114B9B78DBB213498B54FFF739FD08BD002008BD002008BD002008BD002008BD002008BD002008BD002008BD002008BD002008BD002008BD002008BD002008BD8D
:400F8000002008BD002008BD006000400082FF1F8C82FF1F9082FF1F8882FF1F08B500F04DFC08BD10B401223DE0114613010C242148C45402EB42039B00204803445B7978
:400FC00013F0FF0F12D002EB42039B0003441B7913F0800F04D01001194B03449C700AE01001174B03440820987004E01001144B0344802098704B000B449B000F4803443E
:40100000DC88E4B208010C4901448C71D888C0F30720C871D888C0B20871DB88C3F307234B710132D2B2082ABFD9FF22054B1A705DF8044B704700BF706000401482FF1FFF
:40104000FC5F00400A600040074B1B78074A02EBC30253681A7C824203D903EBC003586970470020704700BFFC81FF1FD8220000F8B5404B1B7813F0FF0F79D03D4B1878C1
:401080000138C0B2FFF7E0FF047AC2683A4B1878C0B200236AE01178814264D13749095CC9B25578A9425ED1917801F07F01D67806F00306DFF8C8E04D000D44AD000EEBC2
:4010C00005074FF0000C87F803C092F802C087F804C092F803C00EF805C095883D8192F90250002D0DDA012E01D1072700E00D274D000D44AD00224E35446F7101266E7088
:401100000CE0012E01D1052700E009274D000D44AD001B4E35446F7100266E70DFF868E00F010EEB07060125B57001FA05F529448900134D29440D89C5F307250EF8075066
:401140000D89EDB27570CE88F6B20E4D3D44AE71CE88C6F30726EE71CE88F6B22E71C988C1F30721697108320133DBB2A34292D3F8BD00BF0C82FF1F1182FF1FF481FF1F74
:401180001482FF1F70600040FC5F0040034B1A78034B03EBC2035868704700BFFC81FF1FD822000008B5074B18780138C0B2FFF74BFF28B14268127900EBC203586908BD56
:4011C000002008BD0C82FF1FF8B500220EE0654E53009D18AD00741900217155A170E1702181A172617061710132D2B2082AEED940B90AE000225C49CA545C49CA5401339C
:40120000DBB200E00023002BF4D0594B1B7813F0FF0F00F0A580564B18780138C0B2FFF713FF4368DB7913F0400F05D0514A137843F00103137004E04E4A137803F0FE03ED
:401240001370057A012461E0C16800235AE08A7802F07F02944252D1264604EB44029200404F3A44128992B28F88BA4206D204EB44029200DFF8ECE0724417810A783A4F45
:40128000BA5CD2B24F78BA4239D191F802C0354F72003244920007EB020E8EF804C091F803E007F802E0CA7802F0030291F90270002F11DA012A02D14FF0070C01E04FF026
:4012C0000D0CDFF8A0E072009719BF00774487F805C001227A7012E0012A02D14FF0050C01E04FF0090C1F4F4FEA460E0EEB060292003A4482F805C0164600227270083138
:401300000133DBB2AB42A2D30134E4B2082C9BD9C06800220CE0837803F07F0310F8084B03EB43039B0014490B449C700132D2B2AA42F0D3FFF736FF104B186000200122E8
:401340000AE0084C5300991889002144C8800B89184480B20132D2B2082AF2D9FFF722FEF8BD00BF1482FF1FF481FF1F1082FF1F0C82FF1F8582FF1F1C82FF1FF881FF1F7A
:4013800008B5154B1A7902F07F02531EDBB2072B20D8530013449B0010490B44997841F0010199700021D970597841F0020159701B7913F0800F05D01201094B13448D2208
:4013C0009A7004E01201064B134489229A70FFF7F7FA08BD002008BD006000401482FF1FFC5F0040264B1B7903F07F035A1ED2B2072A43D810B55A001A44920021490A4486
:40140000917801F0FE0191700021D17019017F241D484454517801F0FD015170127912F0800F14D003EB4302920016490A445278D2B2012A05D11B0102461A440C23937068
:4014400019E01B01104A1A440D23937013E003EB430292000B490A445278D2B2012A05D11B01094A1A440823937004E01B01064A1A4409239370FFF7A3FA10BD00207047B4
:40148000006000401482FF1FFC5F004010B50E4B1C79E4B20D4B18780138C0B2FFF7D4FD43681B799C4201D9012C0AD8084A135DDBB208490B55044B9B78DBB2135501201C
:4014C00010BD002010BD00BF006000400C82FF1FF481FF1F1082FF1F10B59A4B1B78DBB20021994A118013F0800F00F09C80954A5278D2B20A2A00F25D81DFE812F0580095
:401500005B015B015B015B015B010B005B0181005B0189008B4BDB78DBB2012B09D1FFF735FE4268884B5A6012221A80FFF788FB10BD844BDB78DBB2022B13D1814B987846
:40154000FFF782FD002800F0378142687E4B5A605A68D1785A68927842EA01221A80FFF76FFB10BD774BDB78DBB2032B05D01BE00A7811440133DBB201E000237349714A59
:401580009278D2B29A4203D90A7812F0FF0FEFD10B7813F0FF0F00F011810B786A4A13805160FFF74DFB10BD00F0D6F910BD13F0030317D0022B40F0038163490B80614BB7
:4015C0001B7903F07F0303EB43039B00604A13449A78D2B25F4B1A7000225A704B60FFF72FFB10BD584902230B805B4B1A78D2B2584B1A7000225A704B60FFF721FB10BD14
:40160000514B01221A80554A5A60FFF719FB10BD4D4A012313804B4B1B7951490B445360FFF70EFB10BD474A5278013A0A2A00F2C980DFE812F04B00C7007800C7000B0017
:40164000C700C700C7001300C70030003D4B9B78DBB2444A1370FFF7B3F910BD394B9B7803F0FF041BB1601EC0B2FFF7EDFC04B110B9002C40F0A880384B1B78DBB29C42B8
:4016800006D0364B1C700120374B1870FFF79CFDFFF796F910BDFFF7F9FE002800F09680284A1379DBB21279D2B230490A70304AD25C2B49C95CD3B28B4204D001222A4B94
:4016C0001A70FFF7D5FCFFF77BF910BD03F00303012B17D04BB1022B7AD11A4B9B7813F0FF0F77D1FFF77EFE10BD164B9B78DBB2012B71D1184A137803F0FD031370FFF70A
:401700005FF910BD0F4B1B7913F0FF0F66D10D4B98781B79DBB21749CA5C22EA0002CA54FFF74EF910BD03F00303012B31D01BB3022B55D1034B9B7813F0FF0F52D1FFF737
:401740001FFE10BD006000400082FF1FB42300001482FF1FC881FF1F8582FF1F0C82FF1FF481FF1FFD81FF1F1282FF1F1182FF1F1082FF1F8482FF1F1D4B9B78DBB2012BE2
:4017800032D11C4A137843F002031370FFF718F910BD174B1B7913F0FF0F27D1144B98781B79DBB21449CA5C22EA0002CA54FFF707F910BD002010BD002010BD002010BDDE
:4017C000002010BD002010BD002010BD002010BD002010BD002010BD002010BD002010BD002010BD002010BD002010BD002010BD006000408582FF1F8482FF1F044B1B7802
:4018000013F0800F01D0024B5B780020704700BF00600040024B1878C0F38000704700BF21510040044A137803F0FD03400000F0020018431070704720510040024B187899
:40184000C0F38010704700BF8F450040000000000230800803D000BF01380046FCD17047EFF3108072B6704780F31088704700BF01BE704708B5034B1B7A03FB00F0FFF780
:40188000E7FF08BD1081FF1F70B504460E46074B1D681F2802D90020FFF7EAFF04F01F04103455F8240045F8246070BD08ED00E038B504460D46072902D90020FFF7D8FF02
:4018C0001F2C02D90020FFF7D3FF04F01F0000F1604000F564406D01EDB2057038BD00BF08B5FFF7BDFF044A137843F010031370FFF7BAFF08BD00BF9765004008B5044ADC
:40190000137843F001031370FFF7EAFF08BD00BF74650040054B1A7802F0F8021A701A7800F0070010431870704700BF8765004008B50020FFF7EEFF08BD00BF08B5054B37
:401940001B7823B9FFF7F4FF0122024B1A70FFF7D5FF08BDCC81FF1F08B5124B1B7803F00303012B02D0022B04D00FE00D4B1B79DBB20CE00B4B1B7903F07F0303EB43038F
:401980009B00094A13449B78DBB200E00023074A1268D35C032B02D1FFF740FA08BD002008BD00BF006000401C82FF1FF881FF1F014B1868704700BF8081FF1F0E4B70B5D9
:4019C0001E460E4C0025E41AA410A54204D056F8253098470135F8E700F046FD084B094C1E46E41AA4100025A54204D056F8253098470135F8E770BD74240000742400003B
:401A0000742400007C24000010B5431E0A44914204D011F8014B03F8014FF8E710BD03460244934202D003F8011BFAE7704700000EB400B54FF402719CB0ADF814106FF081
:401A40000041049107914FF6FF711DABADF81610084953F8042B02900690086802A9019300F064F8029B00221A701CB05DF804EB03B070478081FF1F2DE9F0478E688246D5
:401A8000B3420C469046994640D38A8912F4906F3AD02568096902236F1A656905EB450595FBF3F57B1C4B449D4238BF1D4653050FD5294600F030FB064698B121693A4604
:401AC000FFF7A2FFA38923F4906343F08003A38113E02A4600F076FB064670B95046216900F0D6FA0C23CAF80030A3894FF0FF3043F04003A381BDE8F08726613E44266026
:401B00004E466561ED1BA560B14500D24E4632462068414600F0A0FAA36800209B1BA36023681E442660BDE8F08700002DE9F0439DB003938B8906461C060D4690460CD5A6
:401B40000B6953B9402100F0E7FA2860286110B90C233360CCE040236B610023099320238DF8293030238DF82A3043461C4613F8012B1AB9B4EB08090FD002E0252AF5D1AF
:401B8000F8E73046294642464B46FFF775FF013000F0A980099B4B4409932378002B00F0A28000234FF0FF3204930793059206938DF853301A9304F101084446DFF848910C
:401BC00021784846052200F039FA08F10108049B30B1C9EB00000122824013430493ECE7D80644BF20228DF85320190744BF2B228DF8532022782A2A02D0079923460EE05F
:401C0000039A0134111D12680391002ABBBF524243F0020307920792B8BF04930AE01C4622780133303A092A03D80A2000FB0121F5E7079123782E2B1AD163782A2B0AD1AF
:401C4000039B02341A1D1B680392002BB8BF4FF0FF3305930CE0611C00220C4623780131303B092B03D80A2000FB0232F5E70592DFF8988021784046032200F0DFF938B1C2
:401C8000049AC8EB00004023834013430493013421781A48062204F101088DF8281000F0CDF988B1164B33B9039B073323F007030833039313E003AB0093304604A92A46E4
:401CC000104BAFF3008007E003AB0093304604A92A460C4B00F092F8421C074603D0099B3B44099341E7AB895B0601D4099801E04FF0FF301DB0BDE8F08300BF3C24000018
:401D000000000000791A000032240000382400002DE9F84391461F468A680B6906469342B8BF1346C9F8003091F843200C46DDF8208012B10133C9F800302368990642BFC3
:401D4000D9F800300233C9F80030256815F006051CD094F843302268003318BF012392061FD5E118302081F843005A1C94F845102244023382F8431013E03046394604F1CF
:401D800019020123C047013007D00135E368D9F800209B1A9D42F0DBDBE74FF0FF30BDE8F8833046394604F14302C0470130F4D02268D9F80050E36802F00602042A08BFA4
:401DC0005D1B2269A3680CBF25EAE57500259342C4BF9B1AED184FF00009A9450ADA3046394604F11A020123C0470130D5D009F10109F2E70020BDE8F88300002DE9FF41D6
:401E00000C461746227E98466E2A06460A9B01F1430100F0B08012D8632A23D00AD8002A00F0BD80582A40F0CC8084F84520DFF804E257E0642A1ED0692A1CD0C1E0732AE7
:401E400000F0B18009D86F2A2ED0702A40F0B980226842F0200222603FE0752A24D0782A3BD0AEE01A6804F14205111D1960136884F84230A9E020681A6810F0800F02D0B7
:401E8000101D186008E010F0400F02F10400186002D0B2F9003000E01368002B3EDA2D225B4284F8432039E020681A6810F0800F02D0101D186007E010F0400F02F104006B
:401EC000186001D0138800E01368227EDFF864E16F2A0CBF08220A221CE07822DFF858E184F845202268186812F0800F00F104051D6003D1550601D5038800E00368D007E2
:401F000044BF42F0200222601BB9226822F0200222601022002084F8430002E0DFF814E10A226568002DA8BF2068A560A4BF20F00400206003B965B10D46B3FBF2F002FB32
:401F400010331EF8033005F8013D03460028F4D100E00D46082A0BD12368DA0708D5236962689A42DEBF302305F8013C05F1FF35491B21612EE025681A6815F0800F6069F4
:401F800003D0151D1D60136808E015F0400F02F104051D60136801D0188000E01860002323610D4616E01A68111D1960156800212846626800F042F808B1401B606063687B
:401FC00004E004F1420584F8422001232361002384F84330CDF800803046214603AA3B46FFF796FE013002D14FF0FF301FE0304639462A462369C0470130F5D023689B07C3
:4020000005D4E068039B9842B8BF18460FE00025E368039A9B1A9D42F3DA3046394604F119020123C0470130DED00135F0E704B0BDE8F081432400005424000010B5C9B2D0
:4020400002449042034605D01C7801308C42F8D1184610BD002010BD814210B501EB020301D3421E0BE09842FBD28118D21AD34204D013F8014D01F8014DF8E710BD9942E2
:4020800004D011F8014B02F8014FF8E710BD000030B500293CD051F8042C0B1F1D49002AB8BF9B180A680C4612B95A600B6030BD93420DD219685818904201BF5A58521896
:4020C0001A60426823605A6030BD994203D80A4651680029F9D1146815199D420AD11B682344D0188842136012D10868034413604B680CE002D90C23036030BD1C681819B2
:40210000884201BF08684968001918605960536030BD00BFD481FF1F70B5CC1C24F0030408340C2C38BF0C24002C064603DA0C233360002070BD8C42F9D3204A13681046DC
:402140001946A1B10A68121B0ED40B2A03D90A608B188C501FE08B420BBF5A684A6802605A6018BF0B4616E00B464968E9E7144D2B681BB9304600F04BF828603046214647
:4021800000F046F8421C0346D1D0C51C25F0030585420AD11C6003F10B001A1D20F00700821A0AD05142995070BD3046E91A00F02FF80130BBD02B46ECE770BDD481FF1FF1
:4021C000D081FF1FF8B5074615460E4621B91146BDE8F840FFF7A0BF1AB9FFF759FF2846F8BD00F025F8A8420ED238462946FFF793FF044650B131462A46FFF705FC38462D
:402200003146FFF745FF01E03046F8BD2046F8BD38B5064C0023054608462360FEF708F8431C02D1236803B12B6038BD9482FF1F51F8040C0028BEBF091851F8043CC018AE
:4022400004387047000000002C1E3420212224342627252E362D3738271E1F202122232425263333362E37381F0405060708090A0B0C0D0E0F101112131415161718191AB6
:402280001B1C1D2F3130232D350405060708090A0B0C0D0E0F101112131415161718191A1B1C1D2F3130354C25580000005100402000305100404000000001400010001463
:4022C0000140000800400140000A004C01400002005001402000000001000000E0220000010000001C240000000000000000000001000000F822000001000000F82300004F
:40230000010000001C23000001000000242300000000000018230000030000000000810308000300010000002C2300000000000060230000000000005423000000000000FE
:4023400000000000010000006C230000010000000A24000002000000D881FF1FEC81FF1F09000000E081FF1FDC81FF1F410005010906A101050719E029E7150025017501D9
:4023800095088102950175088103750195050508190129057501910295017503910375089506150025650507190029658100C00000000000040309042C034300790070003C
:4023C00072006500730073002000530065006D00690063006F006E0064007500630074006F00720012034B006500790062006F00610072006400000009022200010100A08C
:402400000A0904000001030000000921110100012241000705810308000A00001201000200000008B40413E000000102000100004300232D302B2000686C4C0065666745CE
:4024400046470030313233343536373839414243444546003031323334353637383961626364656600000000F8B500BFF8BC08BC9E4670474D000000AD020000F8B500BFE4
:40248000F8BC08BC9E46704729000000A02400000881FF1F800000001001000000000000000000009882FF1F0000D430A86100001900000040787D01000000000000000050
:4024C0000000000000000000000000000000000000000000000000003024000000000000000000000000000000000000000000000000000000000000000000000000000088
:402500000000000000000000000000000000000000000000000000002081FF1F000000000000000000000000000000000000000000000000000000000000000000000000DC
:40254000000000000000000000000000000000000000000000000000000000000000000000000000000000000000000000000000000000000000000000000000000000005B
:40258000000000000000000000000000000000000000000000000000000000000000000000000000000000000000000000000000000000000000000000000000000000001B
:4025C00000000000000000000000000000000000000000000000000000000000000000000000000000000000000000000000000000000000000000000000000000000000DB
:40260000000000000000000000000000000000000000000000000000000000000000000000000000000000000000000000000000000000000000000000000000000000009A
:020000040003F7
:0200000480007A
:40000000014500400152004002070140451401401915014056160140231701400119014002400140014101400342014003430140024701400248014008490140014C014089
:4000400004500140015101407E027C409B20AF20160130014104440149FF4AFF4BFF4CEF4D554E704F48501C520158045A045B045C095F0161086308650867086850690A3B
:400080006A406BA86CC06E406FA88C018E029401960A98019A069C029E01A801AA12B004B210B408B603BA80C104C401C9FFCAFFCBFFCCEFCD55CE72CF48D01CD804DA0481
:4000C000DC09DF01E108E308E508E708E850E90AEA40EBA8ECC0EE40EFA8044009080E2A172019021C401E2A400142024301460247016B01872089088B04900197049D0258
:400100009F01C080C2E4C440D099E4200C010E021401160A18011A061C021E0128012A1230043210340836033A804104440149FF4AFF4BFF4CEF4D554E724F48501C580495
:400140005A045C095F0161086308650867086850690A6A406BA86CC06E406FA88104820183028502870495029704A102A304A502A705B201B301B706BB80C104C401C5C0F7
:40018000C6DEC70FC81EC9FFCAFFCBFFCCEACD55CEF2CF48D01CD804D904DA04DB04DC99DF01E108E308E508E708E850E90AEA40EBA8ECC0EE40EFA8010204400E2A17205F
:4001C00019081C401E2A20012204290A320438013A023B0440014301460247014901512852405901612862409B20C088C2E0C440CA03CC02CE03D099D601D80EEE08EE08C0
:400200003380CC10A7800210A780C010A780AE10E8400808C208AF80EE10130416804F0487048A80C430D280E040AC08100111011A011B01000200000700000000000000D9
:400240004000000000000000C00000000400000602000000000000000000000000000000000000000000000000000000000000000000000000000000000000000000000072
:40028000000000000000000000000000000000000000000000000000000000000000000000000000000000000000000000000000000000000000000000000000000000003E
:4002C00000000000000000000000000000000000000000000000000000000000000000000000000000000000000000000000000000000000000000000000000000000000FE
:4003000000000000000000000000000000000000000000000000000000000000000000000000000000000000000000000000000000000000000000000000000000000000BD
:40034000000000000000000000000000000000000000000000000000000000000000000000000000000000000000000000000000000000000000000000000000000000007D
:0200000490006A
:0400000000004005B7
:0200000490105A
:04000000BC90ACAF55
:0200000490303A
:0200000004EC0E
:0200000490402A
:4000000000000000000000000000000000000000000000000000000000000000000000000000000000000000000000000000000000000000000000000000000000000000C0
:400040000000000000000000000000000000000000000000000000000000000000000000000000000000000000000000000000000000000000000000000000000000000080
:400080000000000000000000000000000000000000000000000000000000000000000000000000000000000000000000000000000000000000000000000000000000000040
:4000C0000000000000000000000000000000000000000000000000000000000000000000000000000000000000000000000000000000000000000000000000000000000000
:0200000490501A
:0C00000000012E16106900012E24155579
:00000001FF